:10022F00572D6F6E20204C2D6F6E2020532D6F6E2B
:10023F0000572D6F6E20204C2D6F666620532D6F4B
:10024F006E00572D6F6666204C2D6F6E2020532D3C
:10025F006F6E00572D6F6666204C2D6F66662053AC
:10026F002D6F6E00572D6F6E20204C2D6F6E20203E
:10027F00532D6F6600572D6F6E20204C2D6F6666C5
:10028F0020532D6F6600572D6F6666204C2D6F6EB5
:10029F002020532D6F6600572D6F6666204C2D6FF3
:0802AF00666620532D6F660006
:10046400020E000102110001010D00011000050837
:090474000000000000C101C100FC
:100026001204491204A9120494751701AB12AA11FD
:100036007D107F0112042CE50DFB7A007517027DF9
:10004600017F011202F1E50D540FFFBF01087BFF8E
:100056007A02792F800EE50D540FFFBF021A7BFF3F
:100066007A0279407D017F021203CC751100751268
:1000760003D290D292020105E50D540FFFBF03088B
:100086007BFF7A027951800EE50D540FFFBF0419EC
:100096007BFF7A0279627D017F021203CC75110023
:1000A600751203C290D2928056E50D540FFFBF051C
:1000B600087BFF7A027973800EE50D540FFFBF06A9
:1000C600197BFF7A0279847D017F021203CC7511B8
:1000D60000751201D290C2928025E50D540FFF7B68
:1000E600FFBF07067A02799580047A0279A67D0118
:1000F6007F021203CC751100751201C290C2927F65
:090106000A7E0012000E02002F17
:030023000203EFE6
:1003EF00C0E0C0D075D000C00030980CC29885997D
:0F03FF000D74082510F8A60DD000D0D0D0E03234
:03000B000203628B
:10036200C0E0C0D0758A33758CFE050FE50F7002B0
:10037200050ED39428E50E94004006750E00750F05
:1003820001D3E50F9512E50E95115004D2A080021B
:07039200C2A0D0D0D0E03280
:10000E00EF1FAC0670011E4C600A7D027CEFDCFE19
:04001E00DDFC80EC99
:0100220022BB
:1004490075985043878053890F438920758BF375BD
:0B0459008DF3C2ABD28ED2AFD2AC222A
:080003008F993099FDC299228A
:0604BD00C2A58F80D2A74A
:0804C3007F027EEFDEFEDFFC8C
:0104CB00220E
:0A04CC00C2A61204BDC2A70204C3B9
:10040E00CFCDCFCECCCE12014E7C007D0A12014E46
:04041E00ED2430FF9A
:0A042200D2A61204BDC2A70204C353
:10047E00AE07BE0104ED148006BE0209ED243F4412
:06048E0080FF1204CC22E5
:1004A9007F381204CC7F0C1204CC7F061204CC7F57
:0404B900010204CC6C
:0A04D600AC0312047EAF04020422FE
:0603CC008B138A14891551
:1003D20012047EE4FDAB13AA14A9158D8275830065
:0C03E20012010FFF60061204220D80E9DA
:0103EE0022EC
:0C0399007F0AEA24FFFDE434FFFC7E0034
:0803A5008E188F198C1A8D1BB4
:1003AD007F017E00E4FBEBC3951BE51A6480F874B6
:0E03BD008098500AAC18AD1912013C0B80E874
:0103CB00220F
:04042C008A158B168C
:1004300012047EAA17EAD39400400D120399AC155A
:08044000AD1612040E1A80ED46
:010448002291
:1002B70012047EC3EA64809480400B7F2B120422D1
:1002C7008A268B27800E7F2D120422C3E49BF527F5
:1002D700E49AF526AA25EAD39400400D120399ACB7
:0902E70026AD2712040E1A80ED69
:0102F00022EB
:0402F1008A158B16C9
:1002F50012047EAA17EAD3940040297F1012039BAB
:10030500AC15AD16CFCDCFCECCCE12014EEF540FDE
:10031500FEC3940AEE5004243080022437FF1204F1
:04032500221A80D147
:0103290022B1
:04032A008A2A8B2B65
:10032E0012047EAA2CEAD394004028EA24FFFDE4AE
:10033E0034FFFC7F027E001203A5AC2AAD2BCFCD7D
:10034E00CFCECCCE12014EEF54012430FF12042238
:03035E001A80D230
:010361002279
:100494005389F0438901758A33758CFED2A9C28DC4
:0504A400D28CD2AF2252
:030000000201A357
:0C01A300787FE4F6D8FD75812C0201EA9B
:10010F00BB010CE58229F582E5833AF583E02250A5
:10011F0006E92582F8E622BBFE06E92582F8E222EF
:0D012F00E58229F582E5833AF583E4932209
:10013C00EF8DF0A4A8F0CF8CF0A428CE8DF0A42ED7
:02014C00FE2291
:10014E00BC000BBE0029EF8DF084FFADF022E4CC95
:10015E00F875F008EF2FFFEE33FEEC33FCEE9DEC5E
:10016E00984005FCEE9DFE0FD5F0E9E4CEFD22EDA4
:10017E00F8F5F0EE8420D21CFEADF075F008EF2FEE
:10018E00FFED33FD4007985006D5F0F222C398FDDF
:05019E000FD5F0EA227C
:1001AF00020026E493A3F8E493A34003F68001F240
:1001BF0008DFF48029E493A3F85407240CC8C33351
:1001CF00C4540F4420C8834004F456800146F6DF20
:1001DF00E4800B0102040810204080900464E47E48
:1001EF00019360BCA3FF543F30E509541FFEE49315
:1001FF00A360010ECF54C025E060A840B8E493A3DC
:10020F00FAE493A3F8E493A3C8C582C8CAC583CA06
:10021F00F0A3C8C582C8CAC583CADFE9DEE780BEBE
:01047D00007E
:00000001FF
